{
  "abi": [
    {
      "inputs": [],
      "stateMutability": "nonpayable",
      "type": "constructor"
    },
    {
      "anonymous": false,
      "inputs": [
        {
          "indexed": true,
          "internalType": "address",
          "name": "owner",
          "type": "address"
        },
        {
          "indexed": true,
          "internalType": "address",
          "name": "approved",
          "type": "address"
        },
        {
          "indexed": true,
          "internalType": "uint256",
          "name": "tokenId",
          "type": "uint256"
        }
      ],
      "name": "Approval",
      "type": "event"
    },
    {
      "anonymous": false,
      "inputs": [
        {
          "indexed": true,
          "internalType": "address",
          "name": "owner",
          "type": "address"
        },
        {
          "indexed": true,
          "internalType": "address",
          "name": "operator",
          "type": "address"
        },
        {
          "indexed": false,
          "internalType": "bool",
          "name": "approved",
          "type": "bool"
        }
      ],
      "name": "ApprovalForAll",
      "type": "event"
    },
    {
      "anonymous": false,
      "inputs": [
        {
          "indexed": true,
          "internalType": "address",
          "name": "previousOwner",
          "type": "address"
        },
        {
          "indexed": true,
          "internalType": "address",
          "name": "newOwner",
          "type": "address"
        }
      ],
      "name": "OwnershipTransferred",
      "type": "event"
    },
    {
      "anonymous": false,
      "inputs": [
        {
          "indexed": true,
          "internalType": "address",
          "name": "from",
          "type": "address"
        },
        {
          "indexed": true,
          "internalType": "address",
          "name": "to",
          "type": "address"
        },
        {
          "indexed": true,
          "internalType": "uint256",
          "name": "tokenId",
          "type": "uint256"
        }
      ],
      "name": "Transfer",
      "type": "event"
    },
    {
      "inputs": [
        {
          "internalType": "address",
          "name": "user",
          "type": "address"
        }
      ],
      "name": "_getGrowthAmountForUser",
      "outputs": [
        {
          "internalType": "uint256",
          "name": "",
          "type": "uint256"
        }
      ],
      "stateMutability": "view",
      "type": "function"
    },
    {
      "inputs": [
        {
          "internalType": "address",
          "name": "to",
          "type": "address"
        },
        {
          "internalType": "uint256",
          "name": "tokenId",
          "type": "uint256"
        }
      ],
      "name": "approve",
      "outputs": [],
      "stateMutability": "nonpayable",
      "type": "function"
    },
    {
      "inputs": [
        {
          "internalType": "address",
          "name": "owner",
          "type": "address"
        }
      ],
      "name": "balanceOf",
      "outputs": [
        {
          "internalType": "uint256",
          "name": "",
          "type": "uint256"
        }
      ],
      "stateMutability": "view",
      "type": "function"
    },
    {
      "inputs": [],
      "name": "firstGrowthTime",
      "outputs": [
        {
          "internalType": "uint256",
          "name": "",
          "type": "uint256"
        }
      ],
      "stateMutability": "view",
      "type": "function"
    },
    {
      "inputs": [
        {
          "internalType": "uint256",
          "name": "tokenId",
          "type": "uint256"
        }
      ],
      "name": "getApproved",
      "outputs": [
        {
          "internalType": "address",
          "name": "",
          "type": "address"
        }
      ],
      "stateMutability": "view",
      "type": "function"
    },
    {
      "inputs": [
        {
          "internalType": "address",
          "name": "to",
          "type": "address"
        },
        {
          "internalType": "string",
          "name": "uri",
          "type": "string"
        }
      ],
      "name": "grow",
      "outputs": [],
      "stateMutability": "nonpayable",
      "type": "function"
    },
    {
      "inputs": [
        {
          "internalType": "address",
          "name": "owner",
          "type": "address"
        },
        {
          "internalType": "address",
          "name": "operator",
          "type": "address"
        }
      ],
      "name": "isApprovedForAll",
      "outputs": [
        {
          "internalType": "bool",
          "name": "",
          "type": "bool"
        }
      ],
      "stateMutability": "view",
      "type": "function"
    },
    {
      "inputs": [],
      "name": "name",
      "outputs": [
        {
          "internalType": "string",
          "name": "",
          "type": "string"
        }
      ],
      "stateMutability": "view",
      "type": "function"
    },
    {
      "inputs": [],
      "name": "owner",
      "outputs": [
        {
          "internalType": "address",
          "name": "",
          "type": "address"
        }
      ],
      "stateMutability": "view",
      "type": "function"
    },
    {
      "inputs": [
        {
          "internalType": "uint256",
          "name": "tokenId",
          "type": "uint256"
        }
      ],
      "name": "ownerOf",
      "outputs": [
        {
          "internalType": "address",
          "name": "",
          "type": "address"
        }
      ],
      "stateMutability": "view",
      "type": "function"
    },
    {
      "inputs": [],
      "name": "renounceOwnership",
      "outputs": [],
      "stateMutability": "nonpayable",
      "type": "function"
    },
    {
      "inputs": [],
      "name": "rewardToken",
      "outputs": [
        {
          "internalType": "contract IERC20",
          "name": "",
          "type": "address"
        }
      ],
      "stateMutability": "view",
      "type": "function"
    },
    {
      "inputs": [
        {
          "internalType": "address",
          "name": "to",
          "type": "address"
        },
        {
          "internalType": "string",
          "name": "uri",
          "type": "string"
        }
      ],
      "name": "safeMint",
      "outputs": [],
      "stateMutability": "nonpayable",
      "type": "function"
    },
    {
      "inputs": [
        {
          "internalType": "address",
          "name": "from",
          "type": "address"
        },
        {
          "internalType": "address",
          "name": "to",
          "type": "address"
        },
        {
          "internalType": "uint256",
          "name": "tokenId",
          "type": "uint256"
        }
      ],
      "name": "safeTransferFrom",
      "outputs": [],
      "stateMutability": "nonpayable",
      "type": "function"
    },
    {
      "inputs": [
        {
          "internalType": "address",
          "name": "from",
          "type": "address"
        },
        {
          "internalType": "address",
          "name": "to",
          "type": "address"
        },
        {
          "internalType": "uint256",
          "name": "tokenId",
          "type": "uint256"
        },
        {
          "internalType": "bytes",
          "name": "data",
          "type": "bytes"
        }
      ],
      "name": "safeTransferFrom",
      "outputs": [],
      "stateMutability": "nonpayable",
      "type": "function"
    },
    {
      "inputs": [
        {
          "internalType": "address",
          "name": "operator",
          "type": "address"
        },
        {
          "internalType": "bool",
          "name": "approved",
          "type": "bool"
        }
      ],
      "name": "setApprovalForAll",
      "outputs": [],
      "stateMutability": "nonpayable",
      "type": "function"
    },
    {
      "inputs": [
        {
          "internalType": "address",
          "name": "_rewardToken",
          "type": "address"
        }
      ],
      "name": "setRewardToken",
      "outputs": [],
      "stateMutability": "nonpayable",
      "type": "function"
    },
    {
      "inputs": [
        {
          "internalType": "bytes4",
          "name": "interfaceId",
          "type": "bytes4"
        }
      ],
      "name": "supportsInterface",
      "outputs": [
        {
          "internalType": "bool",
          "name": "",
          "type": "bool"
        }
      ],
      "stateMutability": "view",
      "type": "function"
    },
    {
      "inputs": [],
      "name": "symbol",
      "outputs": [
        {
          "internalType": "string",
          "name": "",
          "type": "string"
        }
      ],
      "stateMutability": "view",
      "type": "function"
    },
    {
      "inputs": [
        {
          "internalType": "uint256",
          "name": "index",
          "type": "uint256"
        }
      ],
      "name": "tokenByIndex",
      "outputs": [
        {
          "internalType": "uint256",
          "name": "",
          "type": "uint256"
        }
      ],
      "stateMutability": "view",
      "type": "function"
    },
    {
      "inputs": [
        {
          "internalType": "uint256",
          "name": "",
          "type": "uint256"
        }
      ],
      "name": "tokenLvl",
      "outputs": [
        {
          "internalType": "uint256",
          "name": "",
          "type": "uint256"
        }
      ],
      "stateMutability": "view",
      "type": "function"
    },
    {
      "inputs": [
        {
          "internalType": "address",
          "name": "owner",
          "type": "address"
        },
        {
          "internalType": "uint256",
          "name": "index",
          "type": "uint256"
        }
      ],
      "name": "tokenOfOwnerByIndex",
      "outputs": [
        {
          "internalType": "uint256",
          "name": "",
          "type": "uint256"
        }
      ],
      "stateMutability": "view",
      "type": "function"
    },
    {
      "inputs": [
        {
          "internalType": "uint256",
          "name": "tokenId",
          "type": "uint256"
        }
      ],
      "name": "tokenURI",
      "outputs": [
        {
          "internalType": "string",
          "name": "",
          "type": "string"
        }
      ],
      "stateMutability": "view",
      "type": "function"
    },
    {
      "inputs": [],
      "name": "totalSupply",
      "outputs": [
        {
          "internalType": "uint256",
          "name": "",
          "type": "uint256"
        }
      ],
      "stateMutability": "view",
      "type": "function"
    },
    {
      "inputs": [
        {
          "internalType": "address",
          "name": "from",
          "type": "address"
        },
        {
          "internalType": "address",
          "name": "to",
          "type": "address"
        },
        {
          "internalType": "uint256",
          "name": "tokenId",
          "type": "uint256"
        }
      ],
      "name": "transferFrom",
      "outputs": [],
      "stateMutability": "nonpayable",
      "type": "function"
    },
    {
      "inputs": [
        {
          "internalType": "address",
          "name": "newOwner",
          "type": "address"
        }
      ],
      "name": "transferOwnership",
      "outputs": [],
      "stateMutability": "nonpayable",
      "type": "function"
    }
  ],
  "bytecode": {
    "object": "0x60806040523480156200001157600080fd5b506040518060400160405280600a81526020016954726565205374796c6560b01b815250604051806040016040528060048152602001635452454560e01b8152508160009081620000639190620001a2565b506001620000728282620001a2565b5050506200008f62000089620000a760201b60201c565b620000ab565b6200009e42620bdd806200026e565b600d5562000296565b3390565b600b80546001600160a01b038381166001600160a01b0319831681179093556040519116919082907f8be0079c531659141344cd1fd0a4f28419497f9722a3daafe3b4186f6b6457e090600090a35050565b634e487b7160e01b600052604160045260246000fd5b600181811c908216806200012857607f821691505b6020821081036200014957634e487b7160e01b600052602260045260246000fd5b50919050565b601f8211156200019d57600081815260208120601f850160051c81016020861015620001785750805b601f850160051c820191505b81811015620001995782815560010162000184565b5050505b505050565b81516001600160401b03811115620001be57620001be620000fd565b620001d681620001cf845462000113565b846200014f565b602080601f8311600181146200020e5760008415620001f55750858301515b600019600386901b1c1916600185901b17855562000199565b600085815260208120601f198616915b828110156200023f578886015182559484019460019091019084016200021e565b50858210156200025e5787850151600019600388901b60f8161c191681555b5050505050600190811b01905550565b808201808211156200029057634e487b7160e01b600052601160045260246000fd5b92915050565b611f1280620002a66000396000f3fe608060405234801561001057600080fd5b506004361061018e5760003560e01c80637bddb9ef116100de578063c87b56dd11610097578063e985e9c511610071578063e985e9c514610355578063efcf90f314610391578063f2fde38b146103a4578063f7c618c1146103b757600080fd5b8063c87b56dd1461031b578063d204c45e1461032e578063dc6ad44a1461034157600080fd5b80637bddb9ef146102a95780638aee8127146102c95780638da5cb5b146102dc57806395d89b41146102ed578063a22cb465146102f5578063b88d4fde1461030857600080fd5b806323b872dd1161014b5780634f6ccce7116101255780634f6ccce7146102685780636352211e1461027b57806370a082311461028e578063715018a6146102a157600080fd5b806323b872dd1461022f5780632f745c591461024257806342842e0e1461025557600080fd5b806301ffc9a71461019357806306fdde03146101bb578063081812fc146101d057806308227a0d146101fb578063095ea7b31461021257806318160ddd14610227575b600080fd5b6101a66101a13660046118b0565b6103ca565b60405190151581526020015b60405180910390f35b6101c36103db565b6040516101b2919061191d565b6101e36101de366004611930565b61046d565b6040516001600160a01b0390911681526020016101b2565b610204600d5481565b6040519081526020016101b2565b610225610220366004611965565b610494565b005b600854610204565b61022561023d36600461198f565b6105ae565b610204610250366004611965565b6105df565b61022561026336600461198f565b610675565b610204610276366004611930565b610690565b6101e3610289366004611930565b610723565b61020461029c3660046119cb565b610783565b610225610809565b6102046102b7366004611930565b600e6020526000908152604090205481565b6102256102d73660046119cb565b61081d565b600b546001600160a01b03166101e3565b6101c3610847565b6102256103033660046119e6565b610856565b610225610316366004611aae565b610865565b6101c3610329366004611930565b61089d565b61022561033c366004611b2a565b6108a8565b61020461034f3660046119cb565b50600090565b6101a6610363366004611b8c565b6001600160a01b03918216600090815260056020908152604080832093909416825291909152205460ff1690565b61022561039f366004611b2a565b610935565b6102256103b23660046119cb565b61097d565b600c546101e3906001600160a01b031681565b60006103d5826109f6565b92915050565b6060600080546103ea90611bbf565b80601f016020809104026020016040519081016040528092919081815260200182805461041690611bbf565b80156104635780601f1061043857610100808354040283529160200191610463565b820191906000526020600020905b81548152906001019060200180831161044657829003601f168201915b5050505050905090565b600061047882610a1b565b506000908152600460205260409020546001600160a01b031690565b600061049f82610723565b9050806001600160a01b0316836001600160a01b0316036105115760405162461bcd60e51b815260206004820152602160248201527f4552433732313a20617070726f76616c20746f2063757272656e74206f776e656044820152603960f91b60648201526084015b60405180910390fd5b336001600160a01b038216148061052d575061052d8133610363565b61059f5760405162461bcd60e51b815260206004820152603d60248201527f4552433732313a20617070726f76652063616c6c6572206973206e6f7420746f60448201527f6b656e206f776e6572206f7220617070726f76656420666f7220616c6c0000006064820152608401610508565b6105a98383610a7a565b505050565b6105b83382610ae8565b6105d45760405162461bcd60e51b815260040161050890611bf9565b6105a9838383610b67565b60006105ea83610783565b821061064c5760405162461bcd60e51b815260206004820152602b60248201527f455243373231456e756d657261626c653a206f776e657220696e646578206f7560448201526a74206f6620626f756e647360a81b6064820152608401610508565b506001600160a01b03919091166000908152600660209081526040808320938352929052205490565b6105a983838360405180602001604052806000815250610865565b600061069b60085490565b82106106fe5760405162461bcd60e51b815260206004820152602c60248201527f455243373231456e756d657261626c653a20676c6f62616c20696e646578206f60448201526b7574206f6620626f756e647360a01b6064820152608401610508565b6008828154811061071157610711611c46565b90600052602060002001549050919050565b6000818152600260205260408120546001600160a01b0316806103d55760405162461bcd60e51b8152602060048201526018602482015277115490cdcc8c4e881a5b9d985b1a59081d1bdad95b88125160421b6044820152606401610508565b60006001600160a01b0382166107ed5760405162461bcd60e51b815260206004820152602960248201527f4552433732313a2061646472657373207a65726f206973206e6f7420612076616044820152683634b21037bbb732b960b91b6064820152608401610508565b506001600160a01b031660009081526003602052604090205490565b610811610cd8565b61081b6000610d32565b565b610825610cd8565b600c80546001600160a01b0319166001600160a01b0392909216919091179055565b6060600180546103ea90611bbf565b610861338383610d84565b5050565b61086f3383610ae8565b61088b5760405162461bcd60e51b815260040161050890611bf9565b61089784848484610e52565b50505050565b60606103d582610e85565b6108b0610cd8565b6108b982610783565b156109065760405162461bcd60e51b815260206004820152601860248201527f4f6e6c79206f6e6520746f6b656e20617661696c61626c6500000000000000006044820152606401610508565b600061091160105490565b9050610921601080546001019055565b61092b8382610f8d565b6105a98183610fa7565b60405162461bcd60e51b815260206004820152601a60248201527f546865207472656520686173206e6f74207965742067726f776e0000000000006044820152606401610508565b610985610cd8565b6001600160a01b0381166109ea5760405162461bcd60e51b815260206004820152602660248201527f4f776e61626c653a206e6577206f776e657220697320746865207a65726f206160448201526564647265737360d01b6064820152608401610508565b6109f381610d32565b50565b60006001600160e01b0319821663780e9d6360e01b14806103d557506103d58261103a565b6000818152600260205260409020546001600160a01b03166109f35760405162461bcd60e51b8152602060048201526018602482015277115490cdcc8c4e881a5b9d985b1a59081d1bdad95b88125160421b6044820152606401610508565b600081815260046020526040902080546001600160a01b0319166001600160a01b0384169081179091558190610aaf82610723565b6001600160a01b03167f8c5be1e5ebec7d5bd14f71427d1e84f3dd0314c0f7b2291e5b200ac8c7c3b92560405160405180910390a45050565b600080610af483610723565b9050806001600160a01b0316846001600160a01b03161480610b3b57506001600160a01b0380821660009081526005602090815260408083209388168352929052205460ff165b80610b5f5750836001600160a01b0316610b548461046d565b6001600160a01b0316145b949350505050565b826001600160a01b0316610b7a82610723565b6001600160a01b031614610ba05760405162461bcd60e51b815260040161050890611c5c565b6001600160a01b038216610c025760405162461bcd60e51b8152602060048201526024808201527f4552433732313a207472616e7366657220746f20746865207a65726f206164646044820152637265737360e01b6064820152608401610508565b610c0f838383600161108a565b826001600160a01b0316610c2282610723565b6001600160a01b031614610c485760405162461bcd60e51b815260040161050890611c5c565b600081815260046020908152604080832080546001600160a01b03199081169091556001600160a01b0387811680865260038552838620805460001901905590871680865283862080546001019055868652600290945282852080549092168417909155905184937fddf252ad1be2c89b69c2b068fc378daa952ba7f163c4a11628f55a4df523b3ef91a4505050565b600b546001600160a01b0316331461081b5760405162461bcd60e51b815260206004820181905260248201527f4f776e61626c653a2063616c6c6572206973206e6f7420746865206f776e65726044820152606401610508565b600b80546001600160a01b038381166001600160a01b0319831681179093556040519116919082907f8be0079c531659141344cd1fd0a4f28419497f9722a3daafe3b4186f6b6457e090600090a35050565b816001600160a01b0316836001600160a01b031603610de55760405162461bcd60e51b815260206004820152601960248201527f4552433732313a20617070726f766520746f2063616c6c6572000000000000006044820152606401610508565b6001600160a01b03838116600081815260056020908152604080832094871680845294825291829020805460ff191686151590811790915591519182527f17307eab39ab6107e8899845ad3d59bd9653f200f220920489ca2b5937696c31910160405180910390a3505050565b610e5d848484610b67565b610e6984848484611096565b6108975760405162461bcd60e51b815260040161050890611ca1565b6060610e9082610a1b565b6000828152600a602052604081208054610ea990611bbf565b80601f0160208091040260200160405190810160405280929190818152602001828054610ed590611bbf565b8015610f225780601f10610ef757610100808354040283529160200191610f22565b820191906000526020600020905b815481529060010190602001808311610f0557829003601f168201915b505050505090506000610f4060408051602081019091526000815290565b90508051600003610f52575092915050565b815115610f84578082604051602001610f6c929190611cf3565b60405160208183030381529060405292505050919050565b610b5f84611197565b61086182826040518060200160405280600081525061120b565b6000828152600260205260409020546001600160a01b03166110225760405162461bcd60e51b815260206004820152602e60248201527f45524337323155524953746f726167653a2055524920736574206f66206e6f6e60448201526d32bc34b9ba32b73a103a37b5b2b760911b6064820152608401610508565b6000828152600a602052604090206105a98282611d70565b60006001600160e01b031982166380ac58cd60e01b148061106b57506001600160e01b03198216635b5e139f60e01b145b806103d557506301ffc9a760e01b6001600160e01b03198316146103d5565b6108978484848461123e565b60006001600160a01b0384163b1561118c57604051630a85bd0160e11b81526001600160a01b0385169063150b7a02906110da903390899088908890600401611e30565b6020604051808303816000875af1925050508015611115575060408051601f3d908101601f1916820190925261111291810190611e6d565b60015b611172573d808015611143576040519150601f19603f3d011682016040523d82523d6000602084013e611148565b606091505b50805160000361116a5760405162461bcd60e51b815260040161050890611ca1565b805181602001fd5b6001600160e01b031916630a85bd0160e11b149050610b5f565b506001949350505050565b60606111a282610a1b565b60006111b960408051602081019091526000815290565b905060008151116111d95760405180602001604052806000815250611204565b806111e38461137e565b6040516020016111f4929190611cf3565b6040516020818303038152906040525b9392505050565b6112158383611411565b6112226000848484611096565b6105a95760405162461bcd60e51b815260040161050890611ca1565b61124a848484846115aa565b60018111156112b95760405162461bcd60e51b815260206004820152603560248201527f455243373231456e756d657261626c653a20636f6e7365637574697665207472604482015274185b9cd9995c9cc81b9bdd081cdd5c1c1bdc9d1959605a1b6064820152608401610508565b816001600160a01b0385166113155761131081600880546000838152600960205260408120829055600182018355919091527ff3f7a9fe364faab93b216da50a3214154f22a0a2b415b23a84c8169e8b636ee30155565b611338565b836001600160a01b0316856001600160a01b031614611338576113388582611632565b6001600160a01b0384166113545761134f816116cf565b611377565b846001600160a01b0316846001600160a01b03161461137757611377848261177e565b5050505050565b6060600061138b836117c2565b600101905060008167ffffffffffffffff8111156113ab576113ab611a22565b6040519080825280601f01601f1916602001820160405280156113d5576020820181803683370190505b5090508181016020015b600019016f181899199a1a9b1b9c1cb0b131b232b360811b600a86061a8153600a85049450846113df57509392505050565b6001600160a01b0382166114675760405162461bcd60e51b815260206004820181905260248201527f4552433732313a206d696e7420746f20746865207a65726f20616464726573736044820152606401610508565b6000818152600260205260409020546001600160a01b0316156114cc5760405162461bcd60e51b815260206004820152601c60248201527f4552433732313a20746f6b656e20616c7265616479206d696e746564000000006044820152606401610508565b6114da60008383600161108a565b6000818152600260205260409020546001600160a01b03161561153f5760405162461bcd60e51b815260206004820152601c60248201527f4552433732313a20746f6b656e20616c7265616479206d696e746564000000006044820152606401610508565b6001600160a01b038216600081815260036020908152604080832080546001019055848352600290915280822080546001600160a01b0319168417905551839291907fddf252ad1be2c89b69c2b068fc378daa952ba7f163c4a11628f55a4df523b3ef908290a45050565b6001811115610897576001600160a01b038416156115f0576001600160a01b038416600090815260036020526040812080548392906115ea908490611ea0565b90915550505b6001600160a01b03831615610897576001600160a01b03831660009081526003602052604081208054839290611627908490611eb3565b909155505050505050565b6000600161163f84610783565b6116499190611ea0565b60008381526007602052604090205490915080821461169c576001600160a01b03841660009081526006602090815260408083208584528252808320548484528184208190558352600790915290208190555b5060009182526007602090815260408084208490556001600160a01b039094168352600681528383209183525290812055565b6008546000906116e190600190611ea0565b6000838152600960205260408120546008805493945090928490811061170957611709611c46565b90600052602060002001549050806008838154811061172a5761172a611c46565b600091825260208083209091019290925582815260099091526040808220849055858252812055600880548061176257611762611ec6565b6001900381819060005260206000200160009055905550505050565b600061178983610783565b6001600160a01b039093166000908152600660209081526040808320868452825280832085905593825260079052919091209190915550565b60008072184f03e93ff9f4daa797ed6e38ed64bf6a1f0160401b83106118015772184f03e93ff9f4daa797ed6e38ed64bf6a1f0160401b830492506040015b6d04ee2d6d415b85acef8100000000831061182d576d04ee2d6d415b85acef8100000000830492506020015b662386f26fc10000831061184b57662386f26fc10000830492506010015b6305f5e1008310611863576305f5e100830492506008015b612710831061187757612710830492506004015b60648310611889576064830492506002015b600a83106103d55760010192915050565b6001600160e01b0319811681146109f357600080fd5b6000602082840312156118c257600080fd5b81356112048161189a565b60005b838110156118e85781810151838201526020016118d0565b50506000910152565b600081518084526119098160208601602086016118cd565b601f01601f19169290920160200192915050565b60208152600061120460208301846118f1565b60006020828403121561194257600080fd5b5035919050565b80356001600160a01b038116811461196057600080fd5b919050565b6000806040838503121561197857600080fd5b61198183611949565b946020939093013593505050565b6000806000606084860312156119a457600080fd5b6119ad84611949565b92506119bb60208501611949565b9150604084013590509250925092565b6000602082840312156119dd57600080fd5b61120482611949565b600080604083850312156119f957600080fd5b611a0283611949565b915060208301358015158114611a1757600080fd5b809150509250929050565b634e487b7160e01b600052604160045260246000fd5b600067ffffffffffffffff80841115611a5357611a53611a22565b604051601f8501601f19908116603f01168101908282118183101715611a7b57611a7b611a22565b81604052809350858152868686011115611a9457600080fd5b858560208301376000602087830101525050509392505050565b60008060008060808587031215611ac457600080fd5b611acd85611949565b9350611adb60208601611949565b925060408501359150606085013567ffffffffffffffff811115611afe57600080fd5b8501601f81018713611b0f57600080fd5b611b1e87823560208401611a38565b91505092959194509250565b60008060408385031215611b3d57600080fd5b611b4683611949565b9150602083013567ffffffffffffffff811115611b6257600080fd5b8301601f81018513611b7357600080fd5b611b8285823560208401611a38565b9150509250929050565b60008060408385031215611b9f57600080fd5b611ba883611949565b9150611bb660208401611949565b90509250929050565b600181811c90821680611bd357607f821691505b602082108103611bf357634e487b7160e01b600052602260045260246000fd5b50919050565b6020808252602d908201527f4552433732313a2063616c6c6572206973206e6f7420746f6b656e206f776e6560408201526c1c881bdc88185c1c1c9bdd9959609a1b606082015260800190565b634e487b7160e01b600052603260045260246000fd5b60208082526025908201527f4552433732313a207472616e736665722066726f6d20696e636f72726563742060408201526437bbb732b960d91b606082015260800190565b60208082526032908201527f4552433732313a207472616e7366657220746f206e6f6e20455243373231526560408201527131b2b4bb32b91034b6b83632b6b2b73a32b960711b606082015260800190565b60008351611d058184602088016118cd565b835190830190611d198183602088016118cd565b01949350505050565b601f8211156105a957600081815260208120601f850160051c81016020861015611d495750805b601f850160051c820191505b81811015611d6857828155600101611d55565b505050505050565b815167ffffffffffffffff811115611d8a57611d8a611a22565b611d9e81611d988454611bbf565b84611d22565b602080601f831160018114611dd35760008415611dbb5750858301515b600019600386901b1c1916600185901b178555611d68565b600085815260208120601f198616915b82811015611e0257888601518255948401946001909101908401611de3565b5085821015611e205787850151600019600388901b60f8161c191681555b5050505050600190811b01905550565b6001600160a01b0385811682528416602082015260408101839052608060608201819052600090611e63908301846118f1565b9695505050505050565b600060208284031215611e7f57600080fd5b81516112048161189a565b634e487b7160e01b600052601160045260246000fd5b818103818111156103d5576103d5611e8a565b808201808211156103d5576103d5611e8a565b634e487b7160e01b600052603160045260246000fdfea2646970667358221220579c07089a5948409215816aa98805d97d643bdfef2679cb520e4bbe77369ae364736f6c63430008110033",
    "linkReferences": {}
  },
  "methodIdentifiers": {
    "_getGrowthAmountForUser(address)": "dc6ad44a",
    "approve(address,uint256)": "095ea7b3",
    "balanceOf(address)": "70a08231",
    "firstGrowthTime()": "08227a0d",
    "getApproved(uint256)": "081812fc",
    "grow(address,string)": "efcf90f3",
    "isApprovedForAll(address,address)": "e985e9c5",
    "name()": "06fdde03",
    "owner()": "8da5cb5b",
    "ownerOf(uint256)": "6352211e",
    "renounceOwnership()": "715018a6",
    "rewardToken()": "f7c618c1",
    "safeMint(address,string)": "d204c45e",
    "safeTransferFrom(address,address,uint256)": "42842e0e",
    "safeTransferFrom(address,address,uint256,bytes)": "b88d4fde",
    "setApprovalForAll(address,bool)": "a22cb465",
    "setRewardToken(address)": "8aee8127",
    "supportsInterface(bytes4)": "01ffc9a7",
    "symbol()": "95d89b41",
    "tokenByIndex(uint256)": "4f6ccce7",
    "tokenLvl(uint256)": "7bddb9ef",
    "tokenOfOwnerByIndex(address,uint256)": "2f745c59",
    "tokenURI(uint256)": "c87b56dd",
    "totalSupply()": "18160ddd",
    "transferFrom(address,address,uint256)": "23b872dd",
    "transferOwnership(address)": "f2fde38b"
  },
  "id": 16
}