{
  "abi": [
    {
      "inputs": [],
      "stateMutability": "nonpayable",
      "type": "constructor"
    },
    {
      "anonymous": false,
      "inputs": [
        {
          "indexed": true,
          "internalType": "address",
          "name": "owner",
          "type": "address"
        },
        {
          "indexed": true,
          "internalType": "address",
          "name": "approved",
          "type": "address"
        },
        {
          "indexed": true,
          "internalType": "uint256",
          "name": "tokenId",
          "type": "uint256"
        }
      ],
      "name": "Approval",
      "type": "event"
    },
    {
      "anonymous": false,
      "inputs": [
        {
          "indexed": true,
          "internalType": "address",
          "name": "owner",
          "type": "address"
        },
        {
          "indexed": true,
          "internalType": "address",
          "name": "operator",
          "type": "address"
        },
        {
          "indexed": false,
          "internalType": "bool",
          "name": "approved",
          "type": "bool"
        }
      ],
      "name": "ApprovalForAll",
      "type": "event"
    },
    {
      "anonymous": false,
      "inputs": [
        {
          "indexed": true,
          "internalType": "address",
          "name": "previousOwner",
          "type": "address"
        },
        {
          "indexed": true,
          "internalType": "address",
          "name": "newOwner",
          "type": "address"
        }
      ],
      "name": "OwnershipTransferred",
      "type": "event"
    },
    {
      "anonymous": false,
      "inputs": [
        {
          "indexed": true,
          "internalType": "address",
          "name": "from",
          "type": "address"
        },
        {
          "indexed": true,
          "internalType": "address",
          "name": "to",
          "type": "address"
        },
        {
          "indexed": true,
          "internalType": "uint256",
          "name": "tokenId",
          "type": "uint256"
        }
      ],
      "name": "Transfer",
      "type": "event"
    },
    {
      "inputs": [],
      "name": "MIN_COST",
      "outputs": [
        {
          "internalType": "uint256",
          "name": "",
          "type": "uint256"
        }
      ],
      "stateMutability": "view",
      "type": "function"
    },
    {
      "inputs": [],
      "name": "MONTH",
      "outputs": [
        {
          "internalType": "uint256",
          "name": "",
          "type": "uint256"
        }
      ],
      "stateMutability": "view",
      "type": "function"
    },
    {
      "inputs": [
        {
          "internalType": "address",
          "name": "user",
          "type": "address"
        }
      ],
      "name": "_availableUserGrowths",
      "outputs": [
        {
          "internalType": "uint256",
          "name": "",
          "type": "uint256"
        }
      ],
      "stateMutability": "view",
      "type": "function"
    },
    {
      "inputs": [
        {
          "internalType": "address",
          "name": "to",
          "type": "address"
        },
        {
          "internalType": "uint256",
          "name": "tokenId",
          "type": "uint256"
        }
      ],
      "name": "approve",
      "outputs": [],
      "stateMutability": "nonpayable",
      "type": "function"
    },
    {
      "inputs": [
        {
          "internalType": "address",
          "name": "owner",
          "type": "address"
        }
      ],
      "name": "balanceOf",
      "outputs": [
        {
          "internalType": "uint256",
          "name": "",
          "type": "uint256"
        }
      ],
      "stateMutability": "view",
      "type": "function"
    },
    {
      "inputs": [],
      "name": "endTime",
      "outputs": [
        {
          "internalType": "uint256",
          "name": "",
          "type": "uint256"
        }
      ],
      "stateMutability": "view",
      "type": "function"
    },
    {
      "inputs": [],
      "name": "firstGrowthTime",
      "outputs": [
        {
          "internalType": "uint256",
          "name": "",
          "type": "uint256"
        }
      ],
      "stateMutability": "view",
      "type": "function"
    },
    {
      "inputs": [
        {
          "internalType": "uint256",
          "name": "tokenId",
          "type": "uint256"
        }
      ],
      "name": "getApproved",
      "outputs": [
        {
          "internalType": "address",
          "name": "",
          "type": "address"
        }
      ],
      "stateMutability": "view",
      "type": "function"
    },
    {
      "inputs": [],
      "name": "getOxygen",
      "outputs": [],
      "stateMutability": "nonpayable",
      "type": "function"
    },
    {
      "inputs": [
        {
          "internalType": "string",
          "name": "uri",
          "type": "string"
        }
      ],
      "name": "grow",
      "outputs": [],
      "stateMutability": "nonpayable",
      "type": "function"
    },
    {
      "inputs": [
        {
          "internalType": "address",
          "name": "",
          "type": "address"
        }
      ],
      "name": "growthsDone",
      "outputs": [
        {
          "internalType": "uint256",
          "name": "",
          "type": "uint256"
        }
      ],
      "stateMutability": "view",
      "type": "function"
    },
    {
      "inputs": [
        {
          "internalType": "address",
          "name": "owner",
          "type": "address"
        },
        {
          "internalType": "address",
          "name": "operator",
          "type": "address"
        }
      ],
      "name": "isApprovedForAll",
      "outputs": [
        {
          "internalType": "bool",
          "name": "",
          "type": "bool"
        }
      ],
      "stateMutability": "view",
      "type": "function"
    },
    {
      "inputs": [],
      "name": "name",
      "outputs": [
        {
          "internalType": "string",
          "name": "",
          "type": "string"
        }
      ],
      "stateMutability": "view",
      "type": "function"
    },
    {
      "inputs": [],
      "name": "owner",
      "outputs": [
        {
          "internalType": "address",
          "name": "",
          "type": "address"
        }
      ],
      "stateMutability": "view",
      "type": "function"
    },
    {
      "inputs": [
        {
          "internalType": "uint256",
          "name": "tokenId",
          "type": "uint256"
        }
      ],
      "name": "ownerOf",
      "outputs": [
        {
          "internalType": "address",
          "name": "",
          "type": "address"
        }
      ],
      "stateMutability": "view",
      "type": "function"
    },
    {
      "inputs": [],
      "name": "renounceOwnership",
      "outputs": [],
      "stateMutability": "nonpayable",
      "type": "function"
    },
    {
      "inputs": [],
      "name": "rewardToken",
      "outputs": [
        {
          "internalType": "contract OxygenToken",
          "name": "",
          "type": "address"
        }
      ],
      "stateMutability": "view",
      "type": "function"
    },
    {
      "inputs": [
        {
          "internalType": "address",
          "name": "to",
          "type": "address"
        },
        {
          "internalType": "string",
          "name": "uri",
          "type": "string"
        }
      ],
      "name": "safeMint",
      "outputs": [],
      "stateMutability": "payable",
      "type": "function"
    },
    {
      "inputs": [
        {
          "internalType": "address",
          "name": "from",
          "type": "address"
        },
        {
          "internalType": "address",
          "name": "to",
          "type": "address"
        },
        {
          "internalType": "uint256",
          "name": "tokenId",
          "type": "uint256"
        }
      ],
      "name": "safeTransferFrom",
      "outputs": [],
      "stateMutability": "nonpayable",
      "type": "function"
    },
    {
      "inputs": [
        {
          "internalType": "address",
          "name": "from",
          "type": "address"
        },
        {
          "internalType": "address",
          "name": "to",
          "type": "address"
        },
        {
          "internalType": "uint256",
          "name": "tokenId",
          "type": "uint256"
        },
        {
          "internalType": "bytes",
          "name": "data",
          "type": "bytes"
        }
      ],
      "name": "safeTransferFrom",
      "outputs": [],
      "stateMutability": "nonpayable",
      "type": "function"
    },
    {
      "inputs": [
        {
          "internalType": "address",
          "name": "operator",
          "type": "address"
        },
        {
          "internalType": "bool",
          "name": "approved",
          "type": "bool"
        }
      ],
      "name": "setApprovalForAll",
      "outputs": [],
      "stateMutability": "nonpayable",
      "type": "function"
    },
    {
      "inputs": [
        {
          "internalType": "address",
          "name": "_rewardToken",
          "type": "address"
        }
      ],
      "name": "setRewardToken",
      "outputs": [],
      "stateMutability": "nonpayable",
      "type": "function"
    },
    {
      "inputs": [
        {
          "internalType": "bytes4",
          "name": "interfaceId",
          "type": "bytes4"
        }
      ],
      "name": "supportsInterface",
      "outputs": [
        {
          "internalType": "bool",
          "name": "",
          "type": "bool"
        }
      ],
      "stateMutability": "view",
      "type": "function"
    },
    {
      "inputs": [],
      "name": "symbol",
      "outputs": [
        {
          "internalType": "string",
          "name": "",
          "type": "string"
        }
      ],
      "stateMutability": "view",
      "type": "function"
    },
    {
      "inputs": [
        {
          "internalType": "uint256",
          "name": "index",
          "type": "uint256"
        }
      ],
      "name": "tokenByIndex",
      "outputs": [
        {
          "internalType": "uint256",
          "name": "",
          "type": "uint256"
        }
      ],
      "stateMutability": "view",
      "type": "function"
    },
    {
      "inputs": [
        {
          "internalType": "uint256",
          "name": "",
          "type": "uint256"
        }
      ],
      "name": "tokenLvl",
      "outputs": [
        {
          "internalType": "uint256",
          "name": "",
          "type": "uint256"
        }
      ],
      "stateMutability": "view",
      "type": "function"
    },
    {
      "inputs": [
        {
          "internalType": "address",
          "name": "owner",
          "type": "address"
        },
        {
          "internalType": "uint256",
          "name": "index",
          "type": "uint256"
        }
      ],
      "name": "tokenOfOwnerByIndex",
      "outputs": [
        {
          "internalType": "uint256",
          "name": "",
          "type": "uint256"
        }
      ],
      "stateMutability": "view",
      "type": "function"
    },
    {
      "inputs": [
        {
          "internalType": "uint256",
          "name": "tokenId",
          "type": "uint256"
        }
      ],
      "name": "tokenURI",
      "outputs": [
        {
          "internalType": "string",
          "name": "",
          "type": "string"
        }
      ],
      "stateMutability": "view",
      "type": "function"
    },
    {
      "inputs": [],
      "name": "totalSupply",
      "outputs": [
        {
          "internalType": "uint256",
          "name": "",
          "type": "uint256"
        }
      ],
      "stateMutability": "view",
      "type": "function"
    },
    {
      "inputs": [
        {
          "internalType": "address",
          "name": "from",
          "type": "address"
        },
        {
          "internalType": "address",
          "name": "to",
          "type": "address"
        },
        {
          "internalType": "uint256",
          "name": "tokenId",
          "type": "uint256"
        }
      ],
      "name": "transferFrom",
      "outputs": [],
      "stateMutability": "nonpayable",
      "type": "function"
    },
    {
      "inputs": [
        {
          "internalType": "address",
          "name": "newOwner",
          "type": "address"
        }
      ],
      "name": "transferOwnership",
      "outputs": [],
      "stateMutability": "nonpayable",
      "type": "function"
    },
    {
      "inputs": [],
      "name": "withdraw",
      "outputs": [],
      "stateMutability": "nonpayable",
      "type": "function"
    }
  ],
  "bytecode": {
    "object": "0x60c06040523480156200001157600080fd5b506040518060400160405280600a81526020016954726565205374796c6560b01b815250604051806040016040528060048152602001635452454560e01b8152508160009081620000639190620001bd565b506001620000728282620001bd565b5050506200008f62000089620000c260201b60201c565b620000c6565b6200009c42600a6200029f565b608052620000ad601e600c620002bb565b620000b990426200029f565b60a052620002d5565b3390565b600b80546001600160a01b038381166001600160a01b0319831681179093556040519116919082907f8be0079c531659141344cd1fd0a4f28419497f9722a3daafe3b4186f6b6457e090600090a35050565b634e487b7160e01b600052604160045260246000fd5b600181811c908216806200014357607f821691505b6020821081036200016457634e487b7160e01b600052602260045260246000fd5b50919050565b601f821115620001b857600081815260208120601f850160051c81016020861015620001935750805b601f850160051c820191505b81811015620001b4578281556001016200019f565b5050505b505050565b81516001600160401b03811115620001d957620001d962000118565b620001f181620001ea84546200012e565b846200016a565b602080601f831160018114620002295760008415620002105750858301515b600019600386901b1c1916600185901b178555620001b4565b600085815260208120601f198616915b828110156200025a5788860151825594840194600190910190840162000239565b5085821015620002795787850151600019600388901b60f8161c191681555b5050505050600190811b01905550565b634e487b7160e01b600052601160045260246000fd5b80820180821115620002b557620002b562000289565b92915050565b8082028115828204841417620002b557620002b562000289565b60805160a05161269c6200031760003960008181610357015281816108530152610b7a01526000818161028901528181610b1b0152610bb1015261269c6000f3fe6080604052600436106101e35760003560e01c80636352211e11610102578063afec570d11610095578063d5999a5c11610064578063d5999a5c1461059e578063e985e9c5146105b3578063f2fde38b146105fc578063f7c618c11461061c57600080fd5b8063afec570d1461052b578063b88d4fde1461054b578063c87b56dd1461056b578063d204c45e1461058b57600080fd5b80638aee8127116100d15780638aee8127146104b85780638da5cb5b146104d857806395d89b41146104f6578063a22cb4651461050b57600080fd5b80636352211e1461043657806370a0823114610456578063715018a6146104765780637bddb9ef1461048b57600080fd5b80632f745c591161017a57806342842e0e1161014957806342842e0e146103a957806343873132146103c95780634f6ccce7146103f65780635ccc22131461041657600080fd5b80632f745c59146103255780633197cbb6146103455780633ccfd60b146103795780634202d6aa1461038e57600080fd5b8063095ea7b3116101b6578063095ea7b3146102b957806318160ddd146102db57806323b872dd146102f0578063248b8edd1461031057600080fd5b806301ffc9a7146101e857806306fdde031461021d578063081812fc1461023f57806308227a0d14610277575b600080fd5b3480156101f457600080fd5b50610208610203366004611fbe565b61063c565b60405190151581526020015b60405180910390f35b34801561022957600080fd5b5061023261064d565b604051610214919061202b565b34801561024b57600080fd5b5061025f61025a36600461203e565b6106df565b6040516001600160a01b039091168152602001610214565b34801561028357600080fd5b506102ab7f000000000000000000000000000000000000000000000000000000000000000081565b604051908152602001610214565b3480156102c557600080fd5b506102d96102d4366004612073565b610706565b005b3480156102e757600080fd5b506008546102ab565b3480156102fc57600080fd5b506102d961030b36600461209d565b610820565b34801561031c57600080fd5b506102d9610851565b34801561033157600080fd5b506102ab610340366004612073565b61099c565b34801561035157600080fd5b506102ab7f000000000000000000000000000000000000000000000000000000000000000081565b34801561038557600080fd5b506102d9610a32565b34801561039a57600080fd5b506102ab66038d7ea4c6800081565b3480156103b557600080fd5b506102d96103c436600461209d565b610a69565b3480156103d557600080fd5b506102ab6103e43660046120d9565b600e6020526000908152604090205481565b34801561040257600080fd5b506102ab61041136600461203e565b610a84565b34801561042257600080fd5b506102ab6104313660046120d9565b610b17565b34801561044257600080fd5b5061025f61045136600461203e565b610c18565b34801561046257600080fd5b506102ab6104713660046120d9565b610c78565b34801561048257600080fd5b506102d9610cfe565b34801561049757600080fd5b506102ab6104a636600461203e565b600d6020526000908152604090205481565b3480156104c457600080fd5b506102d96104d33660046120d9565b610d12565b3480156104e457600080fd5b50600b546001600160a01b031661025f565b34801561050257600080fd5b50610232610d3c565b34801561051757600080fd5b506102d96105263660046120f4565b610d4b565b34801561053757600080fd5b506102d96105463660046121dc565b610d5a565b34801561055757600080fd5b506102d9610566366004612211565b610dec565b34801561057757600080fd5b5061023261058636600461203e565b610e24565b6102d961059936600461228d565b610e2f565b3480156105aa57600080fd5b506102ab601e81565b3480156105bf57600080fd5b506102086105ce3660046122db565b6001600160a01b03918216600090815260056020908152604080832093909416825291909152205460ff1690565b34801561060857600080fd5b506102d96106173660046120d9565b610efc565b34801561062857600080fd5b50600c5461025f906001600160a01b031681565b600061064782610f72565b92915050565b60606000805461065c9061230e565b80601f01602080910402602001604051908101604052809291908181526020018280546106889061230e565b80156106d55780601f106106aa576101008083540402835291602001916106d5565b820191906000526020600020905b8154815290600101906020018083116106b857829003601f168201915b5050505050905090565b60006106ea82610f97565b506000908152600460205260409020546001600160a01b031690565b600061071182610c18565b9050806001600160a01b0316836001600160a01b0316036107835760405162461bcd60e51b815260206004820152602160248201527f4552433732313a20617070726f76616c20746f2063757272656e74206f776e656044820152603960f91b60648201526084015b60405180910390fd5b336001600160a01b038216148061079f575061079f81336105ce565b6108115760405162461bcd60e51b815260206004820152603d60248201527f4552433732313a20617070726f76652063616c6c6572206973206e6f7420746f60448201527f6b656e206f776e6572206f7220617070726f76656420666f7220616c6c000000606482015260840161077a565b61081b8383610ff6565b505050565b61082a3382611064565b6108465760405162461bcd60e51b815260040161077a90612348565b61081b8383836110e3565b7f000000000000000000000000000000000000000000000000000000000000000042116108b45760405162461bcd60e51b8152602060048201526011602482015270139bdd08185d985a5b18589b19481e595d607a1b604482015260640161077a565b336000908152600e6020526040902054600c1461091d5760405162461bcd60e51b815260206004820152602160248201527f546865207472656520686173206e6f742067726f776e20656e6f7567682079656044820152601d60fa1b606482015260840161077a565b600061092a33600061099c565b905061093581611254565b600c546040516340c10f1960e01b8152336004820152600160248201526001600160a01b03909116906340c10f1990604401600060405180830381600087803b15801561098157600080fd5b505af1158015610995573d6000803e3d6000fd5b5050505050565b60006109a783610c78565b8210610a095760405162461bcd60e51b815260206004820152602b60248201527f455243373231456e756d657261626c653a206f776e657220696e646578206f7560448201526a74206f6620626f756e647360a81b606482015260840161077a565b506001600160a01b03919091166000908152600660209081526040808320938352929052205490565b610a3a61125d565b60405133904780156108fc02916000818181858888f19350505050158015610a66573d6000803e3d6000fd5b50565b61081b83838360405180602001604052806000815250610dec565b6000610a8f60085490565b8210610af25760405162461bcd60e51b815260206004820152602c60248201527f455243373231456e756d657261626c653a20676c6f62616c20696e646578206f60448201526b7574206f6620626f756e647360a01b606482015260840161077a565b60088281548110610b0557610b05612395565b90600052602060002001549050919050565b60007f00000000000000000000000000000000000000000000000000000000000000004211610b785760405162461bcd60e51b815260206004820152600d60248201526c139bc819dc9bdddd1a081e595d609a1b604482015260640161077a565b7f0000000000000000000000000000000000000000000000000000000000000000421115610ba85750600c919050565b6000601e610bd67f0000000000000000000000000000000000000000000000000000000000000000426123c1565b610be091906123d4565b610beb9060016123f6565b6001600160a01b0384166000908152600e6020526040902054909150610c1190826123c1565b9392505050565b6000818152600260205260408120546001600160a01b0316806106475760405162461bcd60e51b8152602060048201526018602482015277115490cdcc8c4e881a5b9d985b1a59081d1bdad95b88125160421b604482015260640161077a565b60006001600160a01b038216610ce25760405162461bcd60e51b815260206004820152602960248201527f4552433732313a2061646472657373207a65726f206973206e6f7420612076616044820152683634b21037bbb732b960b91b606482015260840161077a565b506001600160a01b031660009081526003602052604090205490565b610d0661125d565b610d1060006112b7565b565b610d1a61125d565b600c80546001600160a01b0319166001600160a01b0392909216919091179055565b60606001805461065c9061230e565b610d56338383611309565b5050565b6000610d6533610b17565b11610db25760405162461bcd60e51b815260206004820152601a60248201527f546865207472656520686173206e6f74207965742067726f776e000000000000604482015260640161077a565b6000610dbf33600061099c565b336000908152600e60205260408120805492935090610ddd83612409565b9190505550610d5681836113d7565b610df63383611064565b610e125760405162461bcd60e51b815260040161077a90612348565b610e1e8484848461146a565b50505050565b60606106478261149d565b610e3882610c78565b15610e855760405162461bcd60e51b815260206004820152601860248201527f4f6e6c79206f6e6520746f6b656e20617661696c61626c650000000000000000604482015260640161077a565b66038d7ea4c68000341015610ecd5760405162461bcd60e51b815260206004820152600e60248201526d09cdee840cadcdeeaced0408aa8960931b604482015260640161077a565b6000610ed860105490565b9050610ee8601080546001019055565b610ef283826115a5565b61081b81836113d7565b610f0461125d565b6001600160a01b038116610f695760405162461bcd60e51b815260206004820152602660248201527f4f776e61626c653a206e6577206f776e657220697320746865207a65726f206160448201526564647265737360d01b606482015260840161077a565b610a66816112b7565b60006001600160e01b0319821663780e9d6360e01b14806106475750610647826115bf565b6000818152600260205260409020546001600160a01b0316610a665760405162461bcd60e51b8152602060048201526018602482015277115490cdcc8c4e881a5b9d985b1a59081d1bdad95b88125160421b604482015260640161077a565b600081815260046020526040902080546001600160a01b0319166001600160a01b038416908117909155819061102b82610c18565b6001600160a01b03167f8c5be1e5ebec7d5bd14f71427d1e84f3dd0314c0f7b2291e5b200ac8c7c3b92560405160405180910390a45050565b60008061107083610c18565b9050806001600160a01b0316846001600160a01b031614806110b757506001600160a01b0380821660009081526005602090815260408083209388168352929052205460ff165b806110db5750836001600160a01b03166110d0846106df565b6001600160a01b0316145b949350505050565b826001600160a01b03166110f682610c18565b6001600160a01b03161461111c5760405162461bcd60e51b815260040161077a90612422565b6001600160a01b03821661117e5760405162461bcd60e51b8152602060048201526024808201527f4552433732313a207472616e7366657220746f20746865207a65726f206164646044820152637265737360e01b606482015260840161077a565b61118b838383600161160f565b826001600160a01b031661119e82610c18565b6001600160a01b0316146111c45760405162461bcd60e51b815260040161077a90612422565b600081815260046020908152604080832080546001600160a01b03199081169091556001600160a01b0387811680865260038552838620805460001901905590871680865283862080546001019055868652600290945282852080549092168417909155905184937fddf252ad1be2c89b69c2b068fc378daa952ba7f163c4a11628f55a4df523b3ef91a4505050565b610a668161167b565b600b546001600160a01b03163314610d105760405162461bcd60e51b815260206004820181905260248201527f4f776e61626c653a2063616c6c6572206973206e6f7420746865206f776e6572604482015260640161077a565b600b80546001600160a01b038381166001600160a01b0319831681179093556040519116919082907f8be0079c531659141344cd1fd0a4f28419497f9722a3daafe3b4186f6b6457e090600090a35050565b816001600160a01b0316836001600160a01b03160361136a5760405162461bcd60e51b815260206004820152601960248201527f4552433732313a20617070726f766520746f2063616c6c657200000000000000604482015260640161077a565b6001600160a01b03838116600081815260056020908152604080832094871680845294825291829020805460ff191686151590811790915591519182527f17307eab39ab6107e8899845ad3d59bd9653f200f220920489ca2b5937696c31910160405180910390a3505050565b6000828152600260205260409020546001600160a01b03166114525760405162461bcd60e51b815260206004820152602e60248201527f45524337323155524953746f726167653a2055524920736574206f66206e6f6e60448201526d32bc34b9ba32b73a103a37b5b2b760911b606482015260840161077a565b6000828152600a6020526040902061081b82826124b5565b6114758484846110e3565b611481848484846116bb565b610e1e5760405162461bcd60e51b815260040161077a90612575565b60606114a882610f97565b6000828152600a6020526040812080546114c19061230e565b80601f01602080910402602001604051908101604052809291908181526020018280546114ed9061230e565b801561153a5780601f1061150f5761010080835404028352916020019161153a565b820191906000526020600020905b81548152906001019060200180831161151d57829003601f168201915b50505050509050600061155860408051602081019091526000815290565b9050805160000361156a575092915050565b81511561159c5780826040516020016115849291906125c7565b60405160208183030381529060405292505050919050565b6110db846117bc565b610d5682826040518060200160405280600081525061182f565b60006001600160e01b031982166380ac58cd60e01b14806115f057506001600160e01b03198216635b5e139f60e01b145b8061064757506301ffc9a760e01b6001600160e01b0319831614610647565b6001600160a01b038416158061162c57506001600160a01b038316155b61166f5760405162461bcd60e51b8152602060048201526014602482015273151c985b9cd9995c881b9bdd08185b1b1bddd95960621b604482015260640161077a565b610e1e84848484611862565b6116848161199b565b6000818152600a60205260409020805461169d9061230e565b159050610a66576000818152600a60205260408120610a6691611f5a565b60006001600160a01b0384163b156117b157604051630a85bd0160e11b81526001600160a01b0385169063150b7a02906116ff9033908990889088906004016125f6565b6020604051808303816000875af192505050801561173a575060408051601f3d908101601f1916820190925261173791810190612633565b60015b611797573d808015611768576040519150601f19603f3d011682016040523d82523d6000602084013e61176d565b606091505b50805160000361178f5760405162461bcd60e51b815260040161077a90612575565b805181602001fd5b6001600160e01b031916630a85bd0160e11b1490506110db565b506001949350505050565b60606117c782610f97565b60006117de60408051602081019091526000815290565b905060008151116117fe5760405180602001604052806000815250610c11565b8061180884611a3e565b6040516020016118199291906125c7565b6040516020818303038152906040529392505050565b6118398383611ad1565b61184660008484846116bb565b61081b5760405162461bcd60e51b815260040161077a90612575565b61186e84848484611c6a565b60018111156118dd5760405162461bcd60e51b815260206004820152603560248201527f455243373231456e756d657261626c653a20636f6e7365637574697665207472604482015274185b9cd9995c9cc81b9bdd081cdd5c1c1bdc9d1959605a1b606482015260840161077a565b816001600160a01b0385166119395761193481600880546000838152600960205260408120829055600182018355919091527ff3f7a9fe364faab93b216da50a3214154f22a0a2b415b23a84c8169e8b636ee30155565b61195c565b836001600160a01b0316856001600160a01b03161461195c5761195c8582611cf2565b6001600160a01b0384166119785761197381611d8f565b610995565b846001600160a01b0316846001600160a01b031614610995576109958482611e3e565b60006119a682610c18565b90506119b681600084600161160f565b6119bf82610c18565b600083815260046020908152604080832080546001600160a01b03199081169091556001600160a01b0385168085526003845282852080546000190190558785526002909352818420805490911690555192935084927fddf252ad1be2c89b69c2b068fc378daa952ba7f163c4a11628f55a4df523b3ef908390a45050565b60606000611a4b83611e82565b600101905060008167ffffffffffffffff811115611a6b57611a6b612130565b6040519080825280601f01601f191660200182016040528015611a95576020820181803683370190505b5090508181016020015b600019016f181899199a1a9b1b9c1cb0b131b232b360811b600a86061a8153600a8504945084611a9f57509392505050565b6001600160a01b038216611b275760405162461bcd60e51b815260206004820181905260248201527f4552433732313a206d696e7420746f20746865207a65726f2061646472657373604482015260640161077a565b6000818152600260205260409020546001600160a01b031615611b8c5760405162461bcd60e51b815260206004820152601c60248201527f4552433732313a20746f6b656e20616c7265616479206d696e74656400000000604482015260640161077a565b611b9a60008383600161160f565b6000818152600260205260409020546001600160a01b031615611bff5760405162461bcd60e51b815260206004820152601c60248201527f4552433732313a20746f6b656e20616c7265616479206d696e74656400000000604482015260640161077a565b6001600160a01b038216600081815260036020908152604080832080546001019055848352600290915280822080546001600160a01b0319168417905551839291907fddf252ad1be2c89b69c2b068fc378daa952ba7f163c4a11628f55a4df523b3ef908290a45050565b6001811115610e1e576001600160a01b03841615611cb0576001600160a01b03841660009081526003602052604081208054839290611caa9084906123c1565b90915550505b6001600160a01b03831615610e1e576001600160a01b03831660009081526003602052604081208054839290611ce79084906123f6565b909155505050505050565b60006001611cff84610c78565b611d0991906123c1565b600083815260076020526040902054909150808214611d5c576001600160a01b03841660009081526006602090815260408083208584528252808320548484528184208190558352600790915290208190555b5060009182526007602090815260408084208490556001600160a01b039094168352600681528383209183525290812055565b600854600090611da1906001906123c1565b60008381526009602052604081205460088054939450909284908110611dc957611dc9612395565b906000526020600020015490508060088381548110611dea57611dea612395565b6000918252602080832090910192909255828152600990915260408082208490558582528120556008805480611e2257611e22612650565b6001900381819060005260206000200160009055905550505050565b6000611e4983610c78565b6001600160a01b039093166000908152600660209081526040808320868452825280832085905593825260079052919091209190915550565b60008072184f03e93ff9f4daa797ed6e38ed64bf6a1f0160401b8310611ec15772184f03e93ff9f4daa797ed6e38ed64bf6a1f0160401b830492506040015b6d04ee2d6d415b85acef81000000008310611eed576d04ee2d6d415b85acef8100000000830492506020015b662386f26fc100008310611f0b57662386f26fc10000830492506010015b6305f5e1008310611f23576305f5e100830492506008015b6127108310611f3757612710830492506004015b60648310611f49576064830492506002015b600a83106106475760010192915050565b508054611f669061230e565b6000825580601f10611f76575050565b601f016020900490600052602060002090810190610a6691905b80821115611fa45760008155600101611f90565b5090565b6001600160e01b031981168114610a6657600080fd5b600060208284031215611fd057600080fd5b8135610c1181611fa8565b60005b83811015611ff6578181015183820152602001611fde565b50506000910152565b60008151808452612017816020860160208601611fdb565b601f01601f19169290920160200192915050565b602081526000610c116020830184611fff565b60006020828403121561205057600080fd5b5035919050565b80356001600160a01b038116811461206e57600080fd5b919050565b6000806040838503121561208657600080fd5b61208f83612057565b946020939093013593505050565b6000806000606084860312156120b257600080fd5b6120bb84612057565b92506120c960208501612057565b9150604084013590509250925092565b6000602082840312156120eb57600080fd5b610c1182612057565b6000806040838503121561210757600080fd5b61211083612057565b91506020830135801515811461212557600080fd5b809150509250929050565b634e487b7160e01b600052604160045260246000fd5b600067ffffffffffffffff8084111561216157612161612130565b604051601f8501601f19908116603f0116810190828211818310171561218957612189612130565b816040528093508581528686860111156121a257600080fd5b858560208301376000602087830101525050509392505050565b600082601f8301126121cd57600080fd5b610c1183833560208501612146565b6000602082840312156121ee57600080fd5b813567ffffffffffffffff81111561220557600080fd5b6110db848285016121bc565b6000806000806080858703121561222757600080fd5b61223085612057565b935061223e60208601612057565b925060408501359150606085013567ffffffffffffffff81111561226157600080fd5b8501601f8101871361227257600080fd5b61228187823560208401612146565b91505092959194509250565b600080604083850312156122a057600080fd5b6122a983612057565b9150602083013567ffffffffffffffff8111156122c557600080fd5b6122d1858286016121bc565b9150509250929050565b600080604083850312156122ee57600080fd5b6122f783612057565b915061230560208401612057565b90509250929050565b600181811c9082168061232257607f821691505b60208210810361234257634e487b7160e01b600052602260045260246000fd5b50919050565b6020808252602d908201527f4552433732313a2063616c6c6572206973206e6f7420746f6b656e206f776e6560408201526c1c881bdc88185c1c1c9bdd9959609a1b606082015260800190565b634e487b7160e01b600052603260045260246000fd5b634e487b7160e01b600052601160045260246000fd5b81810381811115610647576106476123ab565b6000826123f157634e487b7160e01b600052601260045260246000fd5b500490565b80820180821115610647576106476123ab565b60006001820161241b5761241b6123ab565b5060010190565b60208082526025908201527f4552433732313a207472616e736665722066726f6d20696e636f72726563742060408201526437bbb732b960d91b606082015260800190565b601f82111561081b57600081815260208120601f850160051c8101602086101561248e5750805b601f850160051c820191505b818110156124ad5782815560010161249a565b505050505050565b815167ffffffffffffffff8111156124cf576124cf612130565b6124e3816124dd845461230e565b84612467565b602080601f83116001811461251857600084156125005750858301515b600019600386901b1c1916600185901b1785556124ad565b600085815260208120601f198616915b8281101561254757888601518255948401946001909101908401612528565b50858210156125655787850151600019600388901b60f8161c191681555b5050505050600190811b01905550565b60208082526032908201527f4552433732313a207472616e7366657220746f206e6f6e20455243373231526560408201527131b2b4bb32b91034b6b83632b6b2b73a32b960711b606082015260800190565b600083516125d9818460208801611fdb565b8351908301906125ed818360208801611fdb565b01949350505050565b6001600160a01b038581168252841660208201526040810183905260806060820181905260009061262990830184611fff565b9695505050505050565b60006020828403121561264557600080fd5b8151610c1181611fa8565b634e487b7160e01b600052603160045260246000fdfea2646970667358221220ec0c78fe8e6ef2472371b4240fa388a479c2aef159d93cf71e3d03bcf3fa804e64736f6c63430008110033",
    "linkReferences": {}
  },
  "methodIdentifiers": {
    "MIN_COST()": "4202d6aa",
    "MONTH()": "d5999a5c",
    "_availableUserGrowths(address)": "5ccc2213",
    "approve(address,uint256)": "095ea7b3",
    "balanceOf(address)": "70a08231",
    "endTime()": "3197cbb6",
    "firstGrowthTime()": "08227a0d",
    "getApproved(uint256)": "081812fc",
    "getOxygen()": "248b8edd",
    "grow(string)": "afec570d",
    "growthsDone(address)": "43873132",
    "isApprovedForAll(address,address)": "e985e9c5",
    "name()": "06fdde03",
    "owner()": "8da5cb5b",
    "ownerOf(uint256)": "6352211e",
    "renounceOwnership()": "715018a6",
    "rewardToken()": "f7c618c1",
    "safeMint(address,string)": "d204c45e",
    "safeTransferFrom(address,address,uint256)": "42842e0e",
    "safeTransferFrom(address,address,uint256,bytes)": "b88d4fde",
    "setApprovalForAll(address,bool)": "a22cb465",
    "setRewardToken(address)": "8aee8127",
    "supportsInterface(bytes4)": "01ffc9a7",
    "symbol()": "95d89b41",
    "tokenByIndex(uint256)": "4f6ccce7",
    "tokenLvl(uint256)": "7bddb9ef",
    "tokenOfOwnerByIndex(address,uint256)": "2f745c59",
    "tokenURI(uint256)": "c87b56dd",
    "totalSupply()": "18160ddd",
    "transferFrom(address,address,uint256)": "23b872dd",
    "transferOwnership(address)": "f2fde38b",
    "withdraw()": "3ccfd60b"
  },
  "id": 21
}